:1000000012C02CC02BC02AC029C028C027C026C0BF
:1000100025C024C023C022C021C020C01FC01EC0D4
:100020001DC01CC01BC011241FBECFE5D4E0DEBF25
:10003000CDBF10E0A0E6B0E0E6EDF5E002C005902F
:100040000D92A837B107D9F720E0A8E7B0E001C0CA
:100050001D92AC37B207E1F7FDD0BBC2D1CFA09A59
:100060000895A89A80E58A95F1F7A8980895999936
:1000700018C081E090E0A0E0B0E099990DC0019631
:10008000A11DB11D803C27E2920729E0A207B1051E
:10009000A1F78FEF9FEF0895803C9742A940B105EB
:1000A000C9F11FBC82E08EBD1DBC1CBC999B22C047
:1000B0008CB59DB581369A4EE8F481E090E0A0E0E1
:1000C000B0E0999B12C02CB53DB521363A4E68F48C
:1000D0000196A11DB11D803C27E2920729E0A207ED
:1000E000B10579F78EEF9FEF0895803C9742A940C4
:1000F000B10599F08CB59DB5A0E0B0E01EBC81368D
:100100002AEE9207A105B10558F4B695A7959795E3
:10011000879508958FEF9FEF08958EEF9FEF0895D5
:100120008EEF9FEF089592B39F70282F207F922B20
:1001300092BB9098919A35E03A95F1F7000091982A
:10014000EFE1F3E03197F1F700C0000022B32F7028
:10015000F0E18F9FC0011124822B82BB919A35E080
:100160003A95F1F7000091988FE39FE10197F1F73D
:1001700000C0000008958FEF81BB8FE59AEE0197D4
:10018000F1F700C0000082E0CEDF88E2CCDF8CE037
:10019000CADF86E0C8DF81E0C6DF8FE39FE1019719
:1001A000F1F700C00000089581E0BDDF8FE39FE11B
:1001B0000197F1F700C0000080E8B5DF0895FC0169
:1001C0009081992359F122B32F70907F922B92BB8B
:1001D000909A919A85E08A95F1F7000091988FE1C5
:1001E00093E00197F1F700C0000042B3919180E1E4
:1001F000989F90011124942F9F70292B22BB919AD4
:1002000095E09A95F1F7000091988FE39FE10197AF
:10021000F1F700C0000090819111D5CF0895CF93E0
:10022000DF9300D0CDB7DEB790E8998390EC9A8346
:10023000FE01E60FF11D81509081890F74DF8FE878
:1002400091E00197F1F700C000000F900F90DF914F
:10025000CF910895CF93DF9300D000D0CDB7DEB714
:100260008ADF2FEF81EE94E0215080409040E1F74B
:1002700000C00000F4DE84B38C6384BB8A9AF1DE94
:10028000F6DE8F3F2FEF920739F461E081E0C7DFA0
:1002900080E690E094DFF3CFBC0180E090E075D081
:1002A00026E933E44BE05DE3D6D020E030E040E0E7
:1002B0005FE3D1D039D070937B0060937A002091B6
:1002C0007800309179002617370709F06DDF61E07B
:1002D00081E0A5DF87E690E072DF61E08CE09FDFE0
:1002E0004AE0BE016F5F7F4F80917A0090917B0062
:1002F0003DD1CE01019663DF61E08EE090DF83E7C0
:1003000090E05DDF80917A0090917B00909379007E
:10031000809378008FEF96E721E081509040204055
:10032000E1F700C00000ABCF04D06894B1118DC0DC
:10033000089570D088F09F5790F0B92F9927B75142
:10034000A0F0D1F0660F771F881F991F1AF0BA9599
:10035000C9F712C0B13081F077D0B1E0089574C010
:10036000672F782F8827B85F39F0B93FCCF386958F
:1003700077956795B395D9F73EF4909580957095EC
:1003800061957F4F8F4F9F4F0895E89409C097FB69
:100390003EF490958095709561957F4F8F4F9F4F5C
:1003A0009923A9F0F92F96E9BB279395F6958795A0
:1003B00077956795B795F111F8CFFAF4BB0F11F463
:1003C00060FF1BC06F5F7F4F8F4F9F4F16C088230A
:1003D00011F096E911C0772321F09EE8872F762F40
:1003E00005C0662371F096E8862F70E060E02AF081
:1003F0009A95660F771F881FDAF7880F969587956D
:1004000097F9089557FD9058440F551F59F05F3FD5
:1004100071F04795880F97FB991F61F09F3F79F026
:1004200087950895121613061406551FF2CF4695A8
:10043000F1DF08C0161617061806991FF1CF86952A
:100440007105610508940895E894BB27662777270E
:10045000CB0197F908950BD078C069D028F06ED001
:1004600018F0952309F05AC05FC01124EECFCADFFF
:10047000A0F3959FD1F3950F50E0551F629FF001B7
:10048000729FBB27F00DB11D639FAA27F00DB11D10
:10049000AA1F649F6627B00DA11D661F829F222799
:1004A000B00DA11D621F739FB00DA11D621F839F20
:1004B000A00D611D221F749F3327A00D611D231FF6
:1004C000849F600D211D822F762F6A2F11249F5744
:1004D00050408AF0E1F088234AF0EE0FFF1FBB1F67
:1004E000661F771F881F91505040A9F79E3F510506
:1004F00070F014C0AACF5F3FECF3983EDCF3869512
:1005000077956795B795F795E7959F5FC1F7FE2BB0
:10051000880F911D9695879597F9089597F99F678C
:1005200080E870E060E008959FEF80EC089500247B
:100530000A941616170618060906089500240A9448
:1005400012161306140605060895092E0394000CCE
:1005500011F4882352F0BB0F40F4BF2B11F460FF5D
:1005600004C06F5F7F4F8F4F9F4F0895BB274A3066
:1005700031F4992322F4BDE2909581959F4F01C0FB
:10058000BB27FB015527AA27880F991FAA1FA4176D
:1005900010F0A41B83955051B9F7A05DAA3308F061
:1005A000A95DA193009779F7B111B1931192CB0195
:1005B00000C0DC01FC01672F71917723E1F73297CE
:1005C00004C07C916D9370836291AE17BF07C8F32E
:0605D0000895F894FFCF2E
:1005D6004572726F72210044697374616E6365209F
:0805E6003D200020636D0000C0
:00000001FF
